{
  "_format": "hh-sol-artifact-1",
  "contractName": "DrawContract",
  "sourceName": "contracts/DrawContract.sol",
  "abi": [
    {
      "inputs": [],
      "stateMutability": "nonpayable",
      "type": "constructor"
    },
    {
      "anonymous": false,
      "inputs": [
        {
          "indexed": true,
          "internalType": "address",
          "name": "owner",
          "type": "address"
        },
        {
          "indexed": true,
          "internalType": "address",
          "name": "approved",
          "type": "address"
        },
        {
          "indexed": true,
          "internalType": "uint256",
          "name": "tokenId",
          "type": "uint256"
        }
      ],
      "name": "Approval",
      "type": "event"
    },
    {
      "anonymous": false,
      "inputs": [
        {
          "indexed": true,
          "internalType": "address",
          "name": "owner",
          "type": "address"
        },
        {
          "indexed": true,
          "internalType": "address",
          "name": "operator",
          "type": "address"
        },
        {
          "indexed": false,
          "internalType": "bool",
          "name": "approved",
          "type": "bool"
        }
      ],
      "name": "ApprovalForAll",
      "type": "event"
    },
    {
      "anonymous": false,
      "inputs": [
        {
          "indexed": false,
          "internalType": "uint256",
          "name": "_fromTokenId",
          "type": "uint256"
        },
        {
          "indexed": false,
          "internalType": "uint256",
          "name": "_toTokenId",
          "type": "uint256"
        }
      ],
      "name": "BatchMetadataUpdate",
      "type": "event"
    },
    {
      "anonymous": false,
      "inputs": [
        {
          "indexed": false,
          "internalType": "uint256",
          "name": "_tokenId",
          "type": "uint256"
        }
      ],
      "name": "MetadataUpdate",
      "type": "event"
    },
    {
      "anonymous": false,
      "inputs": [
        {
          "indexed": true,
          "internalType": "address",
          "name": "from",
          "type": "address"
        },
        {
          "indexed": true,
          "internalType": "address",
          "name": "to",
          "type": "address"
        },
        {
          "indexed": true,
          "internalType": "uint256",
          "name": "tokenId",
          "type": "uint256"
        }
      ],
      "name": "Transfer",
      "type": "event"
    },
    {
      "inputs": [
        {
          "internalType": "address",
          "name": "to",
          "type": "address"
        },
        {
          "internalType": "uint256",
          "name": "tokenId",
          "type": "uint256"
        }
      ],
      "name": "approve",
      "outputs": [],
      "stateMutability": "nonpayable",
      "type": "function"
    },
    {
      "inputs": [
        {
          "internalType": "address",
          "name": "owner",
          "type": "address"
        }
      ],
      "name": "balanceOf",
      "outputs": [
        {
          "internalType": "uint256",
          "name": "",
          "type": "uint256"
        }
      ],
      "stateMutability": "view",
      "type": "function"
    },
    {
      "inputs": [],
      "name": "draw",
      "outputs": [],
      "stateMutability": "payable",
      "type": "function"
    },
    {
      "inputs": [
        {
          "internalType": "address",
          "name": "",
          "type": "address"
        }
      ],
      "name": "draws",
      "outputs": [
        {
          "internalType": "uint256",
          "name": "",
          "type": "uint256"
        }
      ],
      "stateMutability": "view",
      "type": "function"
    },
    {
      "inputs": [
        {
          "internalType": "uint256",
          "name": "tokenId",
          "type": "uint256"
        }
      ],
      "name": "getApproved",
      "outputs": [
        {
          "internalType": "address",
          "name": "",
          "type": "address"
        }
      ],
      "stateMutability": "view",
      "type": "function"
    },
    {
      "inputs": [
        {
          "internalType": "address",
          "name": "user",
          "type": "address"
        }
      ],
      "name": "getDrawCount",
      "outputs": [
        {
          "internalType": "uint256",
          "name": "",
          "type": "uint256"
        }
      ],
      "stateMutability": "view",
      "type": "function"
    },
    {
      "inputs": [
        {
          "internalType": "address",
          "name": "owner",
          "type": "address"
        },
        {
          "internalType": "address",
          "name": "operator",
          "type": "address"
        }
      ],
      "name": "isApprovedForAll",
      "outputs": [
        {
          "internalType": "bool",
          "name": "",
          "type": "bool"
        }
      ],
      "stateMutability": "view",
      "type": "function"
    },
    {
      "inputs": [
        {
          "internalType": "address",
          "name": "recipient",
          "type": "address"
        },
        {
          "internalType": "string",
          "name": "tokenURI",
          "type": "string"
        }
      ],
      "name": "mintNFT",
      "outputs": [
        {
          "internalType": "uint256",
          "name": "",
          "type": "uint256"
        }
      ],
      "stateMutability": "nonpayable",
      "type": "function"
    },
    {
      "inputs": [],
      "name": "name",
      "outputs": [
        {
          "internalType": "string",
          "name": "",
          "type": "string"
        }
      ],
      "stateMutability": "view",
      "type": "function"
    },
    {
      "inputs": [
        {
          "internalType": "uint256",
          "name": "tokenId",
          "type": "uint256"
        }
      ],
      "name": "ownerOf",
      "outputs": [
        {
          "internalType": "address",
          "name": "",
          "type": "address"
        }
      ],
      "stateMutability": "view",
      "type": "function"
    },
    {
      "inputs": [
        {
          "internalType": "address",
          "name": "from",
          "type": "address"
        },
        {
          "internalType": "address",
          "name": "to",
          "type": "address"
        },
        {
          "internalType": "uint256",
          "name": "tokenId",
          "type": "uint256"
        }
      ],
      "name": "safeTransferFrom",
      "outputs": [],
      "stateMutability": "nonpayable",
      "type": "function"
    },
    {
      "inputs": [
        {
          "internalType": "address",
          "name": "from",
          "type": "address"
        },
        {
          "internalType": "address",
          "name": "to",
          "type": "address"
        },
        {
          "internalType": "uint256",
          "name": "tokenId",
          "type": "uint256"
        },
        {
          "internalType": "bytes",
          "name": "data",
          "type": "bytes"
        }
      ],
      "name": "safeTransferFrom",
      "outputs": [],
      "stateMutability": "nonpayable",
      "type": "function"
    },
    {
      "inputs": [
        {
          "internalType": "address",
          "name": "operator",
          "type": "address"
        },
        {
          "internalType": "bool",
          "name": "approved",
          "type": "bool"
        }
      ],
      "name": "setApprovalForAll",
      "outputs": [],
      "stateMutability": "nonpayable",
      "type": "function"
    },
    {
      "inputs": [
        {
          "internalType": "bytes4",
          "name": "interfaceId",
          "type": "bytes4"
        }
      ],
      "name": "supportsInterface",
      "outputs": [
        {
          "internalType": "bool",
          "name": "",
          "type": "bool"
        }
      ],
      "stateMutability": "view",
      "type": "function"
    },
    {
      "inputs": [],
      "name": "symbol",
      "outputs": [
        {
          "internalType": "string",
          "name": "",
          "type": "string"
        }
      ],
      "stateMutability": "view",
      "type": "function"
    },
    {
      "inputs": [],
      "name": "tokenCounter",
      "outputs": [
        {
          "internalType": "uint256",
          "name": "",
          "type": "uint256"
        }
      ],
      "stateMutability": "view",
      "type": "function"
    },
    {
      "inputs": [
        {
          "internalType": "uint256",
          "name": "tokenId",
          "type": "uint256"
        }
      ],
      "name": "tokenURI",
      "outputs": [
        {
          "internalType": "string",
          "name": "",
          "type": "string"
        }
      ],
      "stateMutability": "view",
      "type": "function"
    },
    {
      "inputs": [
        {
          "internalType": "address",
          "name": "from",
          "type": "address"
        },
        {
          "internalType": "address",
          "name": "to",
          "type": "address"
        },
        {
          "internalType": "uint256",
          "name": "tokenId",
          "type": "uint256"
        }
      ],
      "name": "transferFrom",
      "outputs": [],
      "stateMutability": "nonpayable",
      "type": "function"
    }
  ],
  "bytecode": "0x60806040523480156200001157600080fd5b506040518060400160405280600981526020017f44726177546f6b656e00000000000000000000000000000000000000000000008152506040518060400160405280600481526020017f44544b4e0000000000000000000000000000000000000000000000000000000081525081600090816200008f91906200032c565b508060019081620000a191906200032c565b505050600060088190555062000413565b600081519050919050565b7f4e487b7100000000000000000000000000000000000000000000000000000000600052604160045260246000fd5b7f4e487b7100000000000000000000000000000000000000000000000000000000600052602260045260246000fd5b600060028204905060018216806200013457607f821691505b6020821081036200014a5762000149620000ec565b5b50919050565b60008190508160005260206000209050919050565b60006020601f8301049050919050565b600082821b905092915050565b600060088302620001b47fffffffffffffffffffffffffffffffffffffffffffffffffffffffffffffffff8262000175565b620001c0868362000175565b95508019841693508086168417925050509392505050565b6000819050919050565b6000819050919050565b60006200020d620002076200020184620001d8565b620001e2565b620001d8565b9050919050565b6000819050919050565b6200022983620001ec565b62000241620002388262000214565b84845462000182565b825550505050565b600090565b6200025862000249565b620002658184846200021e565b505050565b5b818110156200028d57620002816000826200024e565b6001810190506200026b565b5050565b601f821115620002dc57620002a68162000150565b620002b18462000165565b81016020851015620002c1578190505b620002d9620002d08562000165565b8301826200026a565b50505b505050565b600082821c905092915050565b60006200030160001984600802620002e1565b1980831691505092915050565b60006200031c8383620002ee565b9150826002028217905092915050565b6200033782620000b2565b67ffffffffffffffff811115620003535762000352620000bd565b5b6200035f82546200011b565b6200036c82828562000291565b600060209050601f831160018114620003a457600084156200038f578287015190505b6200039b85826200030e565b8655506200040b565b601f198416620003b48662000150565b60005b82811015620003de57848901518255600182019150602085019450602081019050620003b7565b86831015620003fe5784890151620003fa601f891682620002ee565b8355505b6001600288020188555050505b505050505050565b612d6680620004236000396000f3fe6080604052600436106101095760003560e01c806370a0823111610095578063c87b56dd11610064578063c87b56dd1461036c578063d082e381146103a9578063e985e9c5146103d4578063eacabe1414610411578063fa01c9fa1461044e57610109565b806370a08231146102b257806395d89b41146102ef578063a22cb4651461031a578063b88d4fde1461034357610109565b80630eecae21116100dc5780630eecae21146101dc57806323b872dd146101e657806342842e0e1461020f5780636352211e14610238578063693512781461027557610109565b806301ffc9a71461010e57806306fdde031461014b578063081812fc14610176578063095ea7b3146101b3575b600080fd5b34801561011a57600080fd5b5061013560048036038101906101309190611bf2565b61048b565b6040516101429190611c3a565b60405180910390f35b34801561015757600080fd5b506101606104ec565b60405161016d9190611ce5565b60405180910390f35b34801561018257600080fd5b5061019d60048036038101906101989190611d3d565b61057e565b6040516101aa9190611dab565b60405180910390f35b3480156101bf57600080fd5b506101da60048036038101906101d59190611df2565b6105c4565b005b6101e46106db565b005b3480156101f257600080fd5b5061020d60048036038101906102089190611e32565b610734565b005b34801561021b57600080fd5b5061023660048036038101906102319190611e32565b610794565b005b34801561024457600080fd5b5061025f600480360381019061025a9190611d3d565b6107b4565b60405161026c9190611dab565b60405180910390f35b34801561028157600080fd5b5061029c60048036038101906102979190611e85565b61083a565b6040516102a99190611ec1565b60405180910390f35b3480156102be57600080fd5b506102d960048036038101906102d49190611e85565b610883565b6040516102e69190611ec1565b60405180910390f35b3480156102fb57600080fd5b5061030461093a565b6040516103119190611ce5565b60405180910390f35b34801561032657600080fd5b50610341600480360381019061033c9190611f08565b6109cc565b005b34801561034f57600080fd5b5061036a6004803603810190610365919061207d565b6109e2565b005b34801561037857600080fd5b50610393600480360381019061038e9190611d3d565b610a44565b6040516103a09190611ce5565b60405180910390f35b3480156103b557600080fd5b506103be610b56565b6040516103cb9190611ec1565b60405180910390f35b3480156103e057600080fd5b506103fb60048036038101906103f69190612100565b610b5c565b6040516104089190611c3a565b60405180910390f35b34801561041d57600080fd5b50610438600480360381019061043391906121e1565b610bf0565b6040516104459190611ec1565b60405180910390f35b34801561045a57600080fd5b5061047560048036038101906104709190611e85565b610c2b565b6040516104829190611ec1565b60405180910390f35b6000634906490660e01b7bffffffffffffffffffffffffffffffffffffffffffffffffffffffff1916827bffffffffffffffffffffffffffffffffffffffffffffffffffffffff191614806104e557506104e482610c43565b5b9050919050565b6060600080546104fb9061226c565b80601f01602080910402602001604051908101604052809291908181526020018280546105279061226c565b80156105745780601f1061054957610100808354040283529160200191610574565b820191906000526020600020905b81548152906001019060200180831161055757829003601f168201915b5050505050905090565b600061058982610d25565b6004600083815260200190815260200160002060009054906101000a900473ffffffffffffffffffffffffffffffffffffffff169050919050565b60006105cf826107b4565b90508073ffffffffffffffffffffffffffffffffffffffff168373ffffffffffffffffffffffffffffffffffffffff160361063f576040517f08c379a00000000000000000000000000000000000000000000000000000000081526004016106369061230f565b60405180910390fd5b8073ffffffffffffffffffffffffffffffffffffffff1661065e610d70565b73ffffffffffffffffffffffffffffffffffffffff16148061068d575061068c81610687610d70565b610b5c565b5b6106cc576040517f08c379a00000000000000000000000000000000000000000000000000000000081526004016106c3906123a1565b60405180910390fd5b6106d68383610d78565b505050565b6001600760003373ffffffffffffffffffffffffffffffffffffffff1673ffffffffffffffffffffffffffffffffffffffff168152602001908152602001600020600082825461072b91906123f0565b92505081905550565b61074561073f610d70565b82610e31565b610784576040517f08c379a000000000000000000000000000000000000000000000000000000000815260040161077b90612496565b60405180910390fd5b61078f838383610ec6565b505050565b6107af838383604051806020016040528060008152506109e2565b505050565b6000806107c0836111bf565b9050600073ffffffffffffffffffffffffffffffffffffffff168173ffffffffffffffffffffffffffffffffffffffff1603610831576040517f08c379a000000000000000000000000000000000000000000000000000000000815260040161082890612502565b60405180910390fd5b80915050919050565b6000600760008373ffffffffffffffffffffffffffffffffffffffff1673ffffffffffffffffffffffffffffffffffffffff168152602001908152602001600020549050919050565b60008073ffffffffffffffffffffffffffffffffffffffff168273ffffffffffffffffffffffffffffffffffffffff16036108f3576040517f08c379a00000000000000000000000000000000000000000000000000000000081526004016108ea90612594565b60405180910390fd5b600360008373ffffffffffffffffffffffffffffffffffffffff1673ffffffffffffffffffffffffffffffffffffffff168152602001908152602001600020549050919050565b6060600180546109499061226c565b80601f01602080910402602001604051908101604052809291908181526020018280546109759061226c565b80156109c25780601f10610997576101008083540402835291602001916109c2565b820191906000526020600020905b8154815290600101906020018083116109a557829003601f168201915b5050505050905090565b6109de6109d7610d70565b83836111fc565b5050565b6109f36109ed610d70565b83610e31565b610a32576040517f08c379a0000000000000000000000000000000000000000000000000000000008152600401610a2990612496565b60405180910390fd5b610a3e84848484611368565b50505050565b6060610a4f82610d25565b6000600660008481526020019081526020016000208054610a6f9061226c565b80601f0160208091040260200160405190810160405280929190818152602001828054610a9b9061226c565b8015610ae85780601f10610abd57610100808354040283529160200191610ae8565b820191906000526020600020905b815481529060010190602001808311610acb57829003601f168201915b505050505090506000610af96113c4565b90506000815103610b0e578192505050610b51565b600082511115610b43578082604051602001610b2b9291906125f0565b60405160208183030381529060405292505050610b51565b610b4c846113db565b925050505b919050565b60085481565b6000600560008473ffffffffffffffffffffffffffffffffffffffff1673ffffffffffffffffffffffffffffffffffffffff16815260200190815260200160002060008373ffffffffffffffffffffffffffffffffffffffff1673ffffffffffffffffffffffffffffffffffffffff16815260200190815260200160002060009054906101000a900460ff16905092915050565b6000806008549050610c028482611443565b610c0c8184611660565b6001600854610c1b91906123f0565b6008819055508091505092915050565b60076020528060005260406000206000915090505481565b60007f80ac58cd000000000000000000000000000000000000000000000000000000007bffffffffffffffffffffffffffffffffffffffffffffffffffffffff1916827bffffffffffffffffffffffffffffffffffffffffffffffffffffffff19161480610d0e57507f5b5e139f000000000000000000000000000000000000000000000000000000007bffffffffffffffffffffffffffffffffffffffffffffffffffffffff1916827bffffffffffffffffffffffffffffffffffffffffffffffffffffffff1916145b80610d1e5750610d1d82611704565b5b9050919050565b610d2e8161176e565b610d6d576040517f08c379a0000000000000000000000000000000000000000000000000000000008152600401610d6490612502565b60405180910390fd5b50565b600033905090565b816004600083815260200190815260200160002060006101000a81548173ffffffffffffffffffffffffffffffffffffffff021916908373ffffffffffffffffffffffffffffffffffffffff160217905550808273ffffffffffffffffffffffffffffffffffffffff16610deb836107b4565b73ffffffffffffffffffffffffffffffffffffffff167f8c5be1e5ebec7d5bd14f71427d1e84f3dd0314c0f7b2291e5b200ac8c7c3b92560405160405180910390a45050565b600080610e3d836107b4565b90508073ffffffffffffffffffffffffffffffffffffffff168473ffffffffffffffffffffffffffffffffffffffff161480610e7f5750610e7e8185610b5c565b5b80610ebd57508373ffffffffffffffffffffffffffffffffffffffff16610ea58461057e565b73ffffffffffffffffffffffffffffffffffffffff16145b91505092915050565b8273ffffffffffffffffffffffffffffffffffffffff16610ee6826107b4565b73ffffffffffffffffffffffffffffffffffffffff1614610f3c576040517f08c379a0000000000000000000000000000000000000000000000000000000008152600401610f3390612686565b60405180910390fd5b600073ffffffffffffffffffffffffffffffffffffffff168273ffffffffffffffffffffffffffffffffffffffff1603610fab576040517f08c379a0000000000000000000000000000000000000000000000000000000008152600401610fa290612718565b60405180910390fd5b610fb883838360016117af565b8273ffffffffffffffffffffffffffffffffffffffff16610fd8826107b4565b73ffffffffffffffffffffffffffffffffffffffff161461102e576040517f08c379a000000000000000000000000000000000000000000000000000000000815260040161102590612686565b60405180910390fd5b6004600082815260200190815260200160002060006101000a81549073ffffffffffffffffffffffffffffffffffffffff02191690556001600360008573ffffffffffffffffffffffffffffffffffffffff1673ffffffffffffffffffffffffffffffffffffffff168152602001908152602001600020600082825403925050819055506001600360008473ffffffffffffffffffffffffffffffffffffffff1673ffffffffffffffffffffffffffffffffffffffff16815260200190815260200160002060008282540192505081905550816002600083815260200190815260200160002060006101000a81548173ffffffffffffffffffffffffffffffffffffffff021916908373ffffffffffffffffffffffffffffffffffffffff160217905550808273ffffffffffffffffffffffffffffffffffffffff168473ffffffffffffffffffffffffffffffffffffffff167fddf252ad1be2c89b69c2b068fc378daa952ba7f163c4a11628f55a4df523b3ef60405160405180910390a46111ba83838360016117b5565b505050565b60006002600083815260200190815260200160002060009054906101000a900473ffffffffffffffffffffffffffffffffffffffff169050919050565b8173ffffffffffffffffffffffffffffffffffffffff168373ffffffffffffffffffffffffffffffffffffffff160361126a576040517f08c379a000000000000000000000000000000000000000000000000000000000815260040161126190612784565b60405180910390fd5b80600560008573ffffffffffffffffffffffffffffffffffffffff1673ffffffffffffffffffffffffffffffffffffffff16815260200190815260200160002060008473ffffffffffffffffffffffffffffffffffffffff1673ffffffffffffffffffffffffffffffffffffffff16815260200190815260200160002060006101000a81548160ff0219169083151502179055508173ffffffffffffffffffffffffffffffffffffffff168373ffffffffffffffffffffffffffffffffffffffff167f17307eab39ab6107e8899845ad3d59bd9653f200f220920489ca2b5937696c318360405161135b9190611c3a565b60405180910390a3505050565b611373848484610ec6565b61137f848484846117bb565b6113be576040517f08c379a00000000000000000000000000000000000000000000000000000000081526004016113b590612816565b60405180910390fd5b50505050565b606060405180602001604052806000815250905090565b60606113e682610d25565b60006113f06113c4565b90506000815111611410576040518060200160405280600081525061143b565b8061141a84611942565b60405160200161142b9291906125f0565b6040516020818303038152906040525b915050919050565b600073ffffffffffffffffffffffffffffffffffffffff168273ffffffffffffffffffffffffffffffffffffffff16036114b2576040517f08c379a00000000000000000000000000000000000000000000000000000000081526004016114a990612882565b60405180910390fd5b6114bb8161176e565b156114fb576040517f08c379a00000000000000000000000000000000000000000000000000000000081526004016114f2906128ee565b60405180910390fd5b6115096000838360016117af565b6115128161176e565b15611552576040517f08c379a0000000000000000000000000000000000000000000000000000000008152600401611549906128ee565b60405180910390fd5b6001600360008473ffffffffffffffffffffffffffffffffffffffff1673ffffffffffffffffffffffffffffffffffffffff16815260200190815260200160002060008282540192505081905550816002600083815260200190815260200160002060006101000a81548173ffffffffffffffffffffffffffffffffffffffff021916908373ffffffffffffffffffffffffffffffffffffffff160217905550808273ffffffffffffffffffffffffffffffffffffffff16600073ffffffffffffffffffffffffffffffffffffffff167fddf252ad1be2c89b69c2b068fc378daa952ba7f163c4a11628f55a4df523b3ef60405160405180910390a461165c6000838360016117b5565b5050565b6116698261176e565b6116a8576040517f08c379a000000000000000000000000000000000000000000000000000000000815260040161169f90612980565b60405180910390fd5b806006600084815260200190815260200160002090816116c89190612b4c565b507ff8e1a15aba9398e019f0b49df1a4fde98ee17ae345cb5f6b5e2c27f5033e8ce7826040516116f89190611ec1565b60405180910390a15050565b60007f01ffc9a7000000000000000000000000000000000000000000000000000000007bffffffffffffffffffffffffffffffffffffffffffffffffffffffff1916827bffffffffffffffffffffffffffffffffffffffffffffffffffffffff1916149050919050565b60008073ffffffffffffffffffffffffffffffffffffffff16611790836111bf565b73ffffffffffffffffffffffffffffffffffffffff1614159050919050565b50505050565b50505050565b60006117dc8473ffffffffffffffffffffffffffffffffffffffff16611a10565b15611935578373ffffffffffffffffffffffffffffffffffffffff1663150b7a02611805610d70565b8786866040518563ffffffff1660e01b81526004016118279493929190612c73565b6020604051808303816000875af192505050801561186357506040513d601f19601f820116820180604052508101906118609190612cd4565b60015b6118e5573d8060008114611893576040519150601f19603f3d011682016040523d82523d6000602084013e611898565b606091505b5060008151036118dd576040517f08c379a00000000000000000000000000000000000000000000000000000000081526004016118d490612816565b60405180910390fd5b805181602001fd5b63150b7a0260e01b7bffffffffffffffffffffffffffffffffffffffffffffffffffffffff1916817bffffffffffffffffffffffffffffffffffffffffffffffffffffffff19161491505061193a565b600190505b949350505050565b60606000600161195184611a33565b01905060008167ffffffffffffffff8111156119705761196f611f52565b5b6040519080825280601f01601f1916602001820160405280156119a25781602001600182028036833780820191505090505b509050600082602001820190505b600115611a05578080600190039150507f3031323334353637383961626364656600000000000000000000000000000000600a86061a8153600a85816119f9576119f8612d01565b5b049450600085036119b0575b819350505050919050565b6000808273ffffffffffffffffffffffffffffffffffffffff163b119050919050565b600080600090507a184f03e93ff9f4daa797ed6e38ed64bf6a1f0100000000000000008310611a91577a184f03e93ff9f4daa797ed6e38ed64bf6a1f0100000000000000008381611a8757611a86612d01565b5b0492506040810190505b6d04ee2d6d415b85acef81000000008310611ace576d04ee2d6d415b85acef81000000008381611ac457611ac3612d01565b5b0492506020810190505b662386f26fc100008310611afd57662386f26fc100008381611af357611af2612d01565b5b0492506010810190505b6305f5e1008310611b26576305f5e1008381611b1c57611b1b612d01565b5b0492506008810190505b6127108310611b4b576127108381611b4157611b40612d01565b5b0492506004810190505b60648310611b6e5760648381611b6457611b63612d01565b5b0492506002810190505b600a8310611b7d576001810190505b80915050919050565b6000604051905090565b600080fd5b600080fd5b60007fffffffff0000000000000000000000000000000000000000000000000000000082169050919050565b611bcf81611b9a565b8114611bda57600080fd5b50565b600081359050611bec81611bc6565b92915050565b600060208284031215611c0857611c07611b90565b5b6000611c1684828501611bdd565b91505092915050565b60008115159050919050565b611c3481611c1f565b82525050565b6000602082019050611c4f6000830184611c2b565b92915050565b600081519050919050565b600082825260208201905092915050565b60005b83811015611c8f578082015181840152602081019050611c74565b60008484015250505050565b6000601f19601f8301169050919050565b6000611cb782611c55565b611cc18185611c60565b9350611cd1818560208601611c71565b611cda81611c9b565b840191505092915050565b60006020820190508181036000830152611cff8184611cac565b905092915050565b6000819050919050565b611d1a81611d07565b8114611d2557600080fd5b50565b600081359050611d3781611d11565b92915050565b600060208284031215611d5357611d52611b90565b5b6000611d6184828501611d28565b91505092915050565b600073ffffffffffffffffffffffffffffffffffffffff82169050919050565b6000611d9582611d6a565b9050919050565b611da581611d8a565b82525050565b6000602082019050611dc06000830184611d9c565b92915050565b611dcf81611d8a565b8114611dda57600080fd5b50565b600081359050611dec81611dc6565b92915050565b60008060408385031215611e0957611e08611b90565b5b6000611e1785828601611ddd565b9250506020611e2885828601611d28565b9150509250929050565b600080600060608486031215611e4b57611e4a611b90565b5b6000611e5986828701611ddd565b9350506020611e6a86828701611ddd565b9250506040611e7b86828701611d28565b9150509250925092565b600060208284031215611e9b57611e9a611b90565b5b6000611ea984828501611ddd565b91505092915050565b611ebb81611d07565b82525050565b6000602082019050611ed66000830184611eb2565b92915050565b611ee581611c1f565b8114611ef057600080fd5b50565b600081359050611f0281611edc565b92915050565b60008060408385031215611f1f57611f1e611b90565b5b6000611f2d85828601611ddd565b9250506020611f3e85828601611ef3565b9150509250929050565b600080fd5b600080fd5b7f4e487b7100000000000000000000000000000000000000000000000000000000600052604160045260246000fd5b611f8a82611c9b565b810181811067ffffffffffffffff82111715611fa957611fa8611f52565b5b80604052505050565b6000611fbc611b86565b9050611fc88282611f81565b919050565b600067ffffffffffffffff821115611fe857611fe7611f52565b5b611ff182611c9b565b9050602081019050919050565b82818337600083830152505050565b600061202061201b84611fcd565b611fb2565b90508281526020810184848401111561203c5761203b611f4d565b5b612047848285611ffe565b509392505050565b600082601f83011261206457612063611f48565b5b813561207484826020860161200d565b91505092915050565b6000806000806080858703121561209757612096611b90565b5b60006120a587828801611ddd565b94505060206120b687828801611ddd565b93505060406120c787828801611d28565b925050606085013567ffffffffffffffff8111156120e8576120e7611b95565b5b6120f48782880161204f565b91505092959194509250565b6000806040838503121561211757612116611b90565b5b600061212585828601611ddd565b925050602061213685828601611ddd565b9150509250929050565b600067ffffffffffffffff82111561215b5761215a611f52565b5b61216482611c9b565b9050602081019050919050565b600061218461217f84612140565b611fb2565b9050828152602081018484840111156121a05761219f611f4d565b5b6121ab848285611ffe565b509392505050565b600082601f8301126121c8576121c7611f48565b5b81356121d8848260208601612171565b91505092915050565b600080604083850312156121f8576121f7611b90565b5b600061220685828601611ddd565b925050602083013567ffffffffffffffff81111561222757612226611b95565b5b612233858286016121b3565b9150509250929050565b7f4e487b7100000000000000000000000000000000000000000000000000000000600052602260045260246000fd5b6000600282049050600182168061228457607f821691505b6020821081036122975761229661223d565b5b50919050565b7f4552433732313a20617070726f76616c20746f2063757272656e74206f776e6560008201527f7200000000000000000000000000000000000000000000000000000000000000602082015250565b60006122f9602183611c60565b91506123048261229d565b604082019050919050565b60006020820190508181036000830152612328816122ec565b9050919050565b7f4552433732313a20617070726f76652063616c6c6572206973206e6f7420746f60008201527f6b656e206f776e6572206f7220617070726f76656420666f7220616c6c000000602082015250565b600061238b603d83611c60565b91506123968261232f565b604082019050919050565b600060208201905081810360008301526123ba8161237e565b9050919050565b7f4e487b7100000000000000000000000000000000000000000000000000000000600052601160045260246000fd5b60006123fb82611d07565b915061240683611d07565b925082820190508082111561241e5761241d6123c1565b5b92915050565b7f4552433732313a2063616c6c6572206973206e6f7420746f6b656e206f776e6560008201527f72206f7220617070726f76656400000000000000000000000000000000000000602082015250565b6000612480602d83611c60565b915061248b82612424565b604082019050919050565b600060208201905081810360008301526124af81612473565b9050919050565b7f4552433732313a20696e76616c696420746f6b656e2049440000000000000000600082015250565b60006124ec601883611c60565b91506124f7826124b6565b602082019050919050565b6000602082019050818103600083015261251b816124df565b9050919050565b7f4552433732313a2061646472657373207a65726f206973206e6f74206120766160008201527f6c6964206f776e65720000000000000000000000000000000000000000000000602082015250565b600061257e602983611c60565b915061258982612522565b604082019050919050565b600060208201905081810360008301526125ad81612571565b9050919050565b600081905092915050565b60006125ca82611c55565b6125d481856125b4565b93506125e4818560208601611c71565b80840191505092915050565b60006125fc82856125bf565b915061260882846125bf565b91508190509392505050565b7f4552433732313a207472616e736665722066726f6d20696e636f72726563742060008201527f6f776e6572000000000000000000000000000000000000000000000000000000602082015250565b6000612670602583611c60565b915061267b82612614565b604082019050919050565b6000602082019050818103600083015261269f81612663565b9050919050565b7f4552433732313a207472616e7366657220746f20746865207a65726f2061646460008201527f7265737300000000000000000000000000000000000000000000000000000000602082015250565b6000612702602483611c60565b915061270d826126a6565b604082019050919050565b60006020820190508181036000830152612731816126f5565b9050919050565b7f4552433732313a20617070726f766520746f2063616c6c657200000000000000600082015250565b600061276e601983611c60565b915061277982612738565b602082019050919050565b6000602082019050818103600083015261279d81612761565b9050919050565b7f4552433732313a207472616e7366657220746f206e6f6e20455243373231526560008201527f63656976657220696d706c656d656e7465720000000000000000000000000000602082015250565b6000612800603283611c60565b915061280b826127a4565b604082019050919050565b6000602082019050818103600083015261282f816127f3565b9050919050565b7f4552433732313a206d696e7420746f20746865207a65726f2061646472657373600082015250565b600061286c602083611c60565b915061287782612836565b602082019050919050565b6000602082019050818103600083015261289b8161285f565b9050919050565b7f4552433732313a20746f6b656e20616c7265616479206d696e74656400000000600082015250565b60006128d8601c83611c60565b91506128e3826128a2565b602082019050919050565b60006020820190508181036000830152612907816128cb565b9050919050565b7f45524337323155524953746f726167653a2055524920736574206f66206e6f6e60008201527f6578697374656e7420746f6b656e000000000000000000000000000000000000602082015250565b600061296a602e83611c60565b91506129758261290e565b604082019050919050565b600060208201905081810360008301526129998161295d565b9050919050565b60008190508160005260206000209050919050565b60006020601f8301049050919050565b600082821b905092915050565b600060088302612a027fffffffffffffffffffffffffffffffffffffffffffffffffffffffffffffffff826129c5565b612a0c86836129c5565b95508019841693508086168417925050509392505050565b6000819050919050565b6000612a49612a44612a3f84611d07565b612a24565b611d07565b9050919050565b6000819050919050565b612a6383612a2e565b612a77612a6f82612a50565b8484546129d2565b825550505050565b600090565b612a8c612a7f565b612a97818484612a5a565b505050565b5b81811015612abb57612ab0600082612a84565b600181019050612a9d565b5050565b601f821115612b0057612ad1816129a0565b612ada846129b5565b81016020851015612ae9578190505b612afd612af5856129b5565b830182612a9c565b50505b505050565b600082821c905092915050565b6000612b2360001984600802612b05565b1980831691505092915050565b6000612b3c8383612b12565b9150826002028217905092915050565b612b5582611c55565b67ffffffffffffffff811115612b6e57612b6d611f52565b5b612b78825461226c565b612b83828285612abf565b600060209050601f831160018114612bb65760008415612ba4578287015190505b612bae8582612b30565b865550612c16565b601f198416612bc4866129a0565b60005b82811015612bec57848901518255600182019150602085019450602081019050612bc7565b86831015612c095784890151612c05601f891682612b12565b8355505b6001600288020188555050505b505050505050565b600081519050919050565b600082825260208201905092915050565b6000612c4582612c1e565b612c4f8185612c29565b9350612c5f818560208601611c71565b612c6881611c9b565b840191505092915050565b6000608082019050612c886000830187611d9c565b612c956020830186611d9c565b612ca26040830185611eb2565b8181036060830152612cb48184612c3a565b905095945050505050565b600081519050612cce81611bc6565b92915050565b600060208284031215612cea57612ce9611b90565b5b6000612cf884828501612cbf565b91505092915050565b7f4e487b7100000000000000000000000000000000000000000000000000000000600052601260045260246000fdfea2646970667358221220c7247c54069b2884c5810bc4aff3485d88e09cf0255500957685b2a1bf060ccc64736f6c63430008120033",
  "linkReferences": {},
  "deployedLinkReferences": {}
}